:020000040000fa
:080000000002040000000000f2
:020000040000fa
:0400080006030000eb
:020000040000fa
:04000c0018030000d5
:020000040000fa
:0400100030030000b9
:020000040000fa
:040014000e030000d7
:020000040000fa
:0400180020030000c1
:020000040000fa
:04001c0028030000b5
:020000040000fa
:0400200038030000a1
:020000040000fa
:040024002a060000a8
:020000040000fa
:040028002a060000a4
:020000040000fa
:04002c002a060000a0
:020000040000fa
:040030002a0600009c
:020000040000fa
:040034002a06000098
:020000040000fa
:040038002a06000094
:020000040000fa
:04003c002a06000090
:020000040000fa
:040040002a0600008c
:020000040000fa
:040044002a06000088
:020000040000fa
:04004800fa050000b5
:020000040000fa
:04004c002a06000080
:020000040000fa
:040050002a0600007c
:020000040000fa
:040054002a06000078
:020000040000fa
:040058002a06000074
:020000040000fa
:04005c002a06000070
:020000040000fa
:040060002a0600006c
:020000040000fa
:040064002a06000068
:020000040000fa
:040068002a06000064
:020000040000fa
:04006c00a8030000e5
:020000040000fa
:040070002a0600005c
:020000040000fa
:040074007a0300000b
:020000040000fa
:040078002a06000054
:020000040000fa
:04007c002a06000050
:020000040000fa
:040080002a0600004c
:020000040000fa
:040084002a06000048
:020000040000fa
:040088002a06000044
:020000040000fa
:04008c002a06000040
:020000040000fa
:040090002a0600003c
:020000040000fa
:040094002a06000038
:020000040000fa
:040098002a06000034
:020000040000fa
:04009c002a06000030
:020000040000fa
:0400a0002a0600002c
:020000040000fa
:0400a4002a06000028
:020000040000fa
:0400a8002a06000024
:020000040000fa
:0400ac002a06000020
:020000040000fa
:0400b0002a0600001c
:020000040000fa
:0400b4002a06000018
:020000040000fa
:0400b8002a06000014
:020000040000fa
:0400bc002a06000010
:020000040000fa
:0400c0002a0600000c
:020000040000fa
:0400c4002a06000008
:020000040000fa
:0400c8002a06000004
:020000040000fa
:0400cc002a06000000
:020000040000fa
:0400d0002a060000fc
:020000040000fa
:0400d4002a060000f8
:020000040000fa
:0400d8002a060000f4
:020000040000fa
:0400dc002a060000f0
:020000040000fa
:0400e0002a060000ec
:020000040000fa
:0400e4002a060000e8
:020000040000fa
:0400e8002a060000e4
:020000040000fa
:0400ec002a060000e0
:020000040000fa
:0400f0002a060000dc
:020000040000fa
:0400f4002a060000d8
:020000040000fa
:0400f8002a060000d4
:020000040000fa
:0400fc002a060000d0
:020000040000fa
:040100002a060000cb
:020000040000fa
:040104002a060000c7
:020000040000fa
:040108002a060000c3
:020000040000fa
:04010c002a060000bf
:020000040000fa
:040110002a060000bb
:020000040000fa
:040114002a060000b7
:020000040000fa
:040118002a060000b3
:020000040000fa
:04011c002a060000af
:020000040000fa
:040120002a060000ab
:020000040000fa
:040124002a060000a7
:020000040000fa
:040128002a060000a3
:020000040000fa
:04012c002a0600009f
:020000040000fa
:040130002a0600009b
:020000040000fa
:040134002a06000097
:020000040000fa
:040138002a06000093
:020000040000fa
:04013c002a0600008f
:020000040000fa
:040140002a0600008b
:020000040000fa
:040144002a06000087
:020000040000fa
:040148002a06000083
:020000040000fa
:04014c002a0600007f
:020000040000fa
:040150002a0600007b
:020000040000fa
:040154002a06000077
:020000040000fa
:040158002a06000073
:020000040000fa
:04015c002a0600006f
:020000040000fa
:040160002a0600006b
:020000040000fa
:040164002a06000067
:020000040000fa
:040168002a06000063
:020000040000fa
:04016c002a0600005f
:020000040000fa
:040170002a0600005b
:020000040000fa
:040174002a06000057
:020000040000fa
:040178002a06000053
:020000040000fa
:04017c002a0600004f
:020000040000fa
:040180002a0600004b
:020000040000fa
:040184002a06000047
:020000040000fa
:040188002a06000043
:020000040000fa
:04018c002a0600003f
:020000040000fa
:040190002a0600003b
:020000040000fa
:040194002a06000037
:020000040000fa
:040198002a06000033
:020000040000fa
:04019c002a0600002f
:020000040000fa
:0401a0002a0600002b
:020000040000fa
:0401a4002a06000027
:020000040000fa
:0401a8002a06000023
:020000040000fa
:0401ac002a0600001f
:020000040000fa
:0401b0002a0600001b
:020000040000fa
:0401b4002a06000017
:020000040000fa
:0401b8002a06000013
:020000040000fa
:0401bc002a0600000f
:020000040000fa
:0401c0002a0600000b
:020000040000fa
:0401c4002a06000007
:020000040000fa
:0401c8002a06000003
:020000040000fa
:0401cc002a060000ff
:020000040000fa
:0401d0002a060000fb
:020000040000fa
:0401d4002a060000f7
:020000040000fa
:0401d8002a060000f3
:020000040000fa
:0401dc002a060000ef
:020000040000fa
:0401e0002a060000eb
:020000040000fa
:0401e4002a060000e7
:020000040000fa
:0401e8002a060000e3
:020000040000fa
:0401ec002a060000df
:020000040000fa
:0401f0002a060000db
:020000040000fa
:0401f4002a060000d7
:020000040000fa
:0401f8002a060000d3
:020000040000fa
:0401fc002a060000cf
:020000040000fa
:040200002a060000ca
:020000040000fa
:040204002a060000c6
:020000040000fa
:040208002a060000c2
:020000040000fa
:04020c002a060000be
:020000040000fa
:040210002a060000ba
:020000040000fa
:040214002a060000b6
:020000040000fa
:040218002a060000b2
:020000040000fa
:04021c002a060000ae
:020000040000fa
:040220002a060000aa
:020000040000fa
:040224002a060000a6
:020000040000fa
:040228002a060000a2
:020000040000fa
:04022c002a0600009e
:020000040000fa
:040230002a0600009a
:020000040000fa
:040234002a06000096
:020000040000fa
:040238002a06000092
:020000040000fa
:04023c002a0600008e
:020000040000fa
:040240002a0600008a
:020000040000fa
:040244002a06000086
:020000040000fa
:040248002a06000082
:020000040000fa
:04024c002a0600007e
:020000040000fa
:040250002a0600007a
:020000040000fa
:040254002a06000076
:020000040000fa
:040258002a06000072
:020000040000fa
:04025c002a0600006e
:020000040000fa
:040260002a0600006a
:020000040000fa
:040264002a06000066
:020000040000fa
:040268002a06000062
:020000040000fa
:04026c002a0600005e
:020000040000fa
:040270002a0600005a
:020000040000fa
:040274002a06000056
:020000040000fa
:040278002a06000052
:020000040000fa
:04027c002a0600004e
:020000040000fa
:040280002a0600004a
:020000040000fa
:040284002a06000046
:020000040000fa
:040288002a06000042
:020000040000fa
:04028c002a0600003e
:020000040000fa
:040290002a0600003a
:020000040000fa
:040294002a06000036
:020000040000fa
:040298002a06000032
:020000040000fa
:04029c002a0600002e
:020000040000fa
:0402a0002a0600002a
:020000040000fa
:0402a4002a06000026
:020000040000fa
:0402a8002a06000022
:020000040000fa
:0402ac002a0600001e
:020000040000fa
:0402b0002a0600001a
:020000040000fa
:0402b4002a06000016
:020000040000fa
:0402b8002a06000012
:020000040000fa
:0402bc002a0600000e
:020000040000fa
:0402c0002a0600000a
:020000040000fa
:0402c4002a06000006
:020000040000fa
:0402c8002a06000002
:020000040000fa
:0402cc002a060000fe
:020000040000fa
:0402d0002a060000fa
:020000040000fa
:0402d4002a060000f6
:020000040000fa
:0402d8002a060000f2
:020000040000fa
:0402dc002a060000ee
:020000040000fa
:0402e0002a060000ea
:020000040000fa
:0402e4002a060000e6
:020000040000fa
:0402e8002a060000e2
:020000040000fa
:0402ec002a060000de
:020000040000fa
:0402f0002a060000da
:020000040000fa
:0402f4002a060000d6
:020000040000fa
:0402f8002a060000d2
:020000040000fa
:0402fc002a060000ce
:020000040000fa
:040300002a060000c9
:020000040000fa
:040304002a060000c5
:020000040000fa
:040308002a060000c1
:020000040000fa
:04030c002a060000bd
:020000040000fa
:040310002a060000b9
:020000040000fa
:100400006f0a21000eff21000e018800000000008d
:10041000000020000000e000020032000001200087
:1004200020028800140007000c0207000000e00012
:1004300003003a00a0442100010020000200370020
:100440000000200001002000810f70000100320038
:100450000f000700000020000000e0000200320052
:100460000000020000000000b606020000000000cc
:100470000040da000000fe00200020000000e00044
:1004800002003200100020009001880000000600e9
:10049000a1028800800478000000eb001f003700f4
:1004a000e284440054a0b4009905ba00e2844400f8
:1004b00054a0b4009906ba00e284440054a0b400e9
:1004c0000006eb00476fde00fd07b200ae018800ba
:1004d000636ce10003003a000ad801000000eb0061
:1004e0000e003700606ce10008003a00004deb00a0
:1004f0000a05e800020039003420ec000af0a000f0
:100500008b05e900f9ff3e00040037006168e10057
:10051000010032000086eb000b00070019c7ba008b
:100520000e04e0001905ba0003003a000a00e000da
:10053000dbff3a0000000600fe07b200ae028800b2
:100540008a047800f5ff37000cd0a300e20f4d00bd
:100550001c00390089027800354dba000a05e80010
:10056000020039003420ec000af0a0008b05e900fd
:100570000f003200254dba000a05e80002003900dc
:100580003420ec000af0a0008b05e90008003200de
:100590000c00e0000600320015cdba000a05e800a4
:1005a000020039003420ec000af0a0008b05e900bd
:1005b0008984e80054a0b4000b00e000e2ff3a0098
:1005c000000006009902ba00055d78008b05e9007d
:1005d000f7ff3200c82ade00055d78008b05e900d0
:1005e000f3ff32000c00e000f1ff320019ddba0029
:1005f000eeff3700000000000000000000000000d7
:100600000000000000000000000000003600f800bc
:10061000c028a9000000eb00d00807003600f80051
:10062000d2080700c048a90010002000cb0807002e
:100630003600f800c068a90020002000c7080700a5
:100640003600f800c088a90030002000c308070069
:100650003600f800c0a8a90040002000bf0807002d
:100660003600f800c608a90070002000bb0807008b
:100670003600f80021468000001020000080600055
:100680000000e00003003200c508a900c0002000ff
:10069000b2080700214680000000280000806000aa
:1006a0000000e00003003200c5e8a900800020003f
:1006b000aa08070021468000000220000080600098
:1006c0000000e00003003200c4a8a9009000200050
:1006d000a208070020468000700060000000e000d3
:1006e00003003200c488a900a00020009b08070076
:1006f000ffff37003600f800809fbe00829fbe00db
:10070000849fbe00869fbe000000fa00104080005b
:10071000680060000000e0000600320020858000d4
:100720000000e0000200320020858000000001008f
:100730000268a9000080fa004f03be004f02be000d
:100740004f01be004f00be003600f9000040060019
:100750003600f800809fbe00829fbe00849fbe00ce
:10076000869fbe000000fa000228a9002110800028
:1007700000082000008060000000e0000800320057
:1007800004e2a9006230ef00408380002000900066
:100790008000eb00010878006830ef000e013700a0
:1007a000108380008000eb00b200200003002000d6
:1007b000820f5000838f5800fd003e0000060100ac
:1007c0000b0037003a003700760037009d003700f5
:1007d000f4003700c9003700da003700f1003700b5
:1007e000dc003700f20037003500370051003700d9
:1007f000a005210020009000620060000000e000e1
:10080000f4003a00a0052100100090004083880009
:10081000a0052100100090001040780064f0b7009f
:10082000a005210010009000100090003083880087
:10083000a005210010009000e6004000a005210066
:1008400011009800a005210090009000a005210053
:10085000808f500003003a00a005210041052100cf
:1008600011009800a005210020019000e1ff2f0059
:100870008100610021009800a005210090009000f7
:10088000a005210010007800808f500004003a007d
:10089000a0052100a00090000110a00021009800f8
:1008a0000002a8002000200010838800ca00370042
:1008b0000022a8002000200010838800c600370016
:1008c0002110800000002800008060000000e0008f
:1008d00008003200a0052100604090008040e80040
:1008e000a00521006140980040002000450207005b
:1008f000b9003700b08380008000d100f00f2000e5
:100900000080600060108800b0838000610060009b
:10091000004078000004e00003003200b000200036
:1009200010838800ac00370030002000108388005e
:10093000a90037002110800000002800008060001e
:100940000000e00008003200a00521006040900097
:100950008040e800a0052100614098004000200090
:10096000280207009c0037000022a800b083800006
:100970004800de00e6006000000f2000010070006b
:10098000b0838800b08380000000a000b08388009e
:1009900010c0b30078f0b70020002000108388005a
:1009a0008d00370078d0bf00e14f50000a003200c0
:1009b0003083800010007800b0838800308380008e
:1009c00020009000d0838800308380002040900079
:1009d0007cf0b700010037007870ef00b183800031
:1009e000f00f2000808f500009003600b083800097
:1009f0004800de00e6006000000f200001007000eb
:100a000060108800a000200010838800720037006a
:100a1000b083800060108800b083800061006000b7
:100a2000004078000004e000030032005000200085
:100a30001083880068003700300020001083880091
:100a40006500370021108000000028000080600051
:100a50000000e00009003200a00521006040900085
:100a60008040e800a00521006140980005e2a9004f
:100a700050002000e3010700570037007cd0bf0082
:100a80008080fb008100e900cf08de008140780013
:100a90000040e9007cf0b7000104e00010003200e3
:100aa00030838000660040003083880064d0bf003f
:100ab0000040e90064f0b70064d0bf000004e0002b
:100ac00003003a0020002000ce010700420037005a
:100ad0000022a80020002000108388003e0037007c
:100ae000d0838000904078008180fb0061108800f6
:100af0000000e800d0838800370037002110800014
:100b000000002800008060000000e00009003200c2
:100b1000a0052100604090008040e800a005210071
:100b20006140980040002000b601070005e2a900de
:100b3000290037000062a800800020001083880090
:100b40002500370080002000108388000062a80084
:100b500021003700d0838000711080008140780030
:100b6000014878000000e800d08388007cd0bf00f6
:100b70000040e9007cf0b7007cd0bf000004e0003a
:100b80000400320000a2a900600020001083880049
:100b90000200370000a2a800890107000082a80017
:100ba0000d00370020002000960107000a003700e2
:100bb000a0052100604090008040e800a0052100d1
:100bc00061409800600020008e01070000000000d6
:100bd00001003700000000000080fa004f03be0053
:100be0004f02be004f01be004f00be003600f900ac
:100bf000004006003600f800809fbe00829fbe00c5
:100c0000849fbe00869fbe000000fa00f084800032
:100c10000000e00002003200f084800000000100cb
:100c2000a1d0bf000040e800a1f0b70010c0b300a1
:100c3000a0f0b7000108a9000080fa004f03be0031
:100c40004f02be004f01be004f00be003600f9004b
:100c5000004006000040da000000fe000000050031
:100c600080007800010178003104e000fdff3a00c7
:080c7000000051000000060025
:020000040000fa
:100c78000000fa000060fe000080fa000000060094
:100c88000600fa00b17080000008200000806000b3
:100c98000000e0003000320010002100200798001a
:100ca8000040eb00004f7800270037000040eb00c1
:100cb800204798000040eb001047980018003700c4
:100cc80000000000b170800000402000008060003b
:100cd8000000e000fbff32002e4090000040400082
:100ce8002047980000000000b170800000402000fc
:100cf800008060000000e000fbff3a00b070800058
:100d08004600de0061406000ae40900000c0700008
:100d1800204798001e4090000040e80010479800c7
:100d28001e409000e74f5000e5ff36002e0090006f
:100d3800ae409000014878002e0090000000e800c6
:100d4800200798001e4fe8001e407800e74f50002b
:100d5800d6ff360001003700000000000080fa00ce
:100d6800000006002c00fa00f0ff200090828800a6
:100d7800bd060700406420009e060700044ea90037
:100d880000022000608288000070ef000040eb0045
:100d9800004f7800070037001e80fb0080004000ed
:100da800a0022100008040008000eb0001087800cc
:100db8001e4fe8001e407800ef4f5000f6ff360047
:100dc80040ba2700a1062000d4060700032020000f
:100dd8000001eb008000eb00500020002c0607000b
:100de80010c0b3000f06070090828000f7020700ca
:100df8000470ef0004d0bf0003f0b70003d0bf00b9
:100e080002f0b70002d0bf0001f0b70000c8b3007d
:100e180008f0b70008d0bf0007f0b70007d0bf0040
:100e280006f0b70006d0bf0005f0b700044ea900d1
:100e38000040eb00104798000040eb006047980026
:100e48000040eb00204798000040eb0070479800f6
:100e580087ff070001d0bf000080fb006100600031
:100e68000000e00006003a00044ea900040ea900a4
:100e7800042ea900182ea90000000000f4ff370076
:100e880001d0bf000044b200604798006e40900057
:100e98000004e000090032001e4090000004e00059
:100ea80006003a0000d0bf000004e0000300320052
:100eb80000d0bf000040e90000f0b7001100210099
:100ec8009140780000c8b30000c0600070479800e7
:100ed8007e4090000004e000090032002e4090009f
:100ee8000004e00006003a0000d0bf00e24f5000c6
:100ef80003003e0000d0bf000040e80000f0b7004b
:100f080000d0bf000004e00002003a00044ea9002f
:100f18004e30ef0000d0bf00e14f500002003a0011
:100f28004e30ef00044ea80000d0bf00e24f500042
:100f380003003a00c05d200070828800044ea800bb
:100f480000d0bf00e34f500003003a0060cb2100ff
:100f580070828800044ea800df05070080828800a0
:100f6800808280000000e00001003d005030ef006a
:100f78008182800070828000808f500003003400de
:100f880010002000608288000e0037007182800007
:100f980080828000008050004380de004007980077
:100fa80060828000ce009000808f500005003d00d8
:100fb8004e0090000000e00002003400ce009000d7
:100fc800618288004ad0bf000080fb00800040009a
:100fd800a00221000080400090007800510798008e
:100fe8004ad0bf008080fb0082828000818140005f
:100ff800a102210081804100820878000040e800b9
:101008004af0b7004ad0bf00ef4f50000100360049
:101018004a70ef00818280008082800080804000da
:101028005e00900000805000200798002e0090007d
:101038000000e00002003d000000eb0020079800df
:10104800718280002e009000808f50000a003400ca
:101058009182800060828000008050009082880029
:1010680091828000f07f2000808f500002003c00b9
:101078000080200090828800718280002e009000fd
:10108800808f50000a003d009182800060828000bd
:10109800008040009082880091828000f0ff20004c
:1010a800808f500002003400f0ff200090828800fa
:1010b800908280004502070001d0bf000080fb003d
:1010c800700060000000e00005003200180ea80063
:1010d800182ea800042ea800040ea8000e00370041
:1010e80001d0bf008080fb0000022000008060006b
:1010f8000000e00005003200180ea900182ea80014
:10110800042ea800040ea80003003700040ea9004e
:10111800042ea900182ea900ee409000114798004f
:10112800fe4090002147980049ff37000000fa0070
:10113800a00521004105210011009800a00521000b
:101148004105210001087800a0052100a0009000b9
:101158000110a00021009800a005210020019000a6
:10116800e1ff2f008100610021009800a005210007
:101178008040eb0061409800b015200050108800b6
:1011880000002800001088000422ef000228a900af
:101198002228a8000080fa00000006000200fa00d9
:1011a800a0052100e0409000014f78001e40780023
:1011b8000080fa00000006000000fa00308380007a
:1011c800660040003083880064d0bf000040e9001a
:1011d80064f0b70064d0bf000004e00003003a00e8
:1011e8004000200010838800020037001000200013
:1011f800108388000080fa00000006000200fa0050
:10120800000f78000042a800408380002000900072
:101218000000e000030032004083800020009000be
:101228001e0878006230ef000080fa000000060017
:101238000800fa00000f780021479800220798005c
:1012480033079800a005210020009000610060008d
:101258000000e0000a003a00ae0190002e41900024
:101268009e00780000072100780007003e019000ea
:101278000107210010c0b3001f000700030037005a
:101288003e0090008000eb00010878000080fa0022
:10129800000006000800fa00000f780021479800b7
:1012a8002207980033079800a0052100200090002d
:1012b800610060000000e0000a003a00ae01900002
:1012c8002e4190009e007800a006210047000700ec
:1012d8003e019000a106210010c0b30006000700df
:1012e800030037003e0090008000eb000108780002
:1012f8000080fa00000006000600fa00004f78009f
:101308001107980022079800a005210020009000ee
:10131800610060000000e0002f003a002e009000fd
:101328001100200001087800a005210010007800b5
:101338009e00900011009800a00521001000780080
:101348001e487800a005210010007800ae0090002b
:1013580021009800a005210010007800e600400058
:10136800a005210001087800a00521009000780060
:10137800a0052100808f500003003a00a00521003d
:101388004105210001087800a005210020019000f6
:10139800d1ff2f008100610021009800a0052100e5
:1013a80090009000a005210010007800808f500068
:1013b80004003a00a0052100a00090000100a00050
:1013c80021009800108380000000e00005003a002a
:1013d8000228a800030037002e0090008000eb00d0
:1013e800010878000080fa00000006000800fa00f2
:1013f800000f7800110798004247980033079800bb
:101408003e00900000004000800078001e00780038
:10141800010878001e00780010007800800078002d
:101428000100a0001e007800010878001e00780066
:10143800ce409000214098001e0078009e00900049
:10144800210098000080fa00000006000800fa0059
:10145800000f78001107980042479800330798005a
:101468003e00900000004000800078001e007800d8
:10147800010878001e007800ce40900021409800b6
:101488001e0078009e009000210098000080fa005d
:10149800000006000000fa00a005210020009000ce
:1014a8006200600000f0a7000000ea000000ea0007
:1014b8004f00de00004078000080fa0000000600bf
:1014c8000000fa00a00521002000900061006000e3
:1014d80000f0a7000000ea000000ea004f00de006c
:1014e800004078000080fa00000006000000fa00c2
:1014f80000882000101388001000200020138800a6
:10150800c0002800001388000080fa0000000600d0
:101518000400fa00000f780011079800000000008e
:1015280000138000620060000000e000fcff3a0049
:101538001e007800104078000080fb0040138800ef
:1015480000000000011380000002200000806000fd
:101558000000e000fbff3a00401380008040780064
:101568001e009000014878000080fa000000060084
:101578001800fa00100f9800210f9800320f9800f9
:101588000000eb00000f78000000eb001007980047
:101598000000eb00700798000000eb00000f9800b7
:1015a80010002000600798001e0890000000e0006e
:1015b80005003a000000eb00500798007000470053
:1015c8002007980004003700ee00900051079800ab
:1015d8009e089000210798003e0890000000e00057
:1015e80005003a000000eb00400798006e00470035
:1015f8003007980005003700ee009000410798007a
:10160800be08900031079800000000000013800019
:10161800620060000000e000fcff3a001d00370097
:1016280000138000620060000000e00009003a003a
:101638002e009000104078000080fb0040138800c6
:10164800ae0090005e0090000080400020079800e7
:101658001e0fe800011380000002200000806000d7
:101668000000e0000b003a00401380008040780042
:101678003e00900001487800be0090004e009000a7
:1016880000804000300798001e0090000000e8002d
:10169800100798002e0890009e007800808f500058
:1016a800dfff39001000370001138000000220001e
:1016b800008060000000e0000b003a00401380004a
:1016c800804078003e00900001487800be009000fd
:1016d8004e00900000804000300798001e009000e7
:1016e8000000e800100798009e0090002e08900067
:1016f800808f5000ecff39001e0078000080fa004f
:10170800000006000400fa00204798000e80e80058
:101718008e0078007eff07001e4078000080fa00e7
:10172800000006000600fa00000f78001107980074
:10173800220798002e0190009e0090001e0078005d
:101748008bff07000080fa00000006000000fa0086
:101758001113800000402000008060000000e000bd
:1017680002003a000000eb000100370010002000e2
:101778000080fa00000006000000fa000013800054
:101788000080fa00000006000000fa00022cef00ba
:101798000090210020608800062cef000a2cef0042
:1017a8001a2cef001e2cef000008200000618800b2
:1017b80000082000006288000008200000638800fc
:1017c800000c2b00e3c1200011322400d2bc2a00f7
:1017d800820978008109780010618800000c2b00cc
:1017e800e3c1200011322400d2bc2a00820978000b
:1017f8008109780010628800000c2b00e3c12000ea
:1018080011322400d2bc2a008209780081097800ac
:1018180010638800b00f2000e3c1200011322400bb
:10182800d2bc2a00820978008109780020618800ea
:10183800b00f2000e3c1200011322400d2bc2a00de
:10184800820978008109780020628800b00f2000a2
:10185800e3c1200011322400d2bc2a00820978009a
:101868008109780020638800262cef00462cef00c1
:10187800662cef00282cef00482cef00682cef00b6
:101888004006200050618800400620005062880011
:1018980040062000506388002c2cef004c2cef00f1
:1018a8006c2cef00322cef00522cef00722cef0062
:1018b800342cef00542cef00742cef00382cef0080
:1018c800582cef00782cef003a2cef005a2cef0040
:1018d8007a2cef003c2cef005c2cef007c2cef0006
:1018e8003e2cef005e2cef007e2cef00000028005d
:1018f800006088000080fa00000006000000fa007e
:101908000080fa00000006000000fa003140800064
:1019180000202000008060000000e000020032008b
:10192800f6ff07000728a9000080fa00000006005b
:101938000000fa000080fa00000006000000fa002b
:101948003140800000202000008060000000e0009e
:1019580002003200f6ff07000bc8a9000080fa0059
:10196800000006000000fa000080fa0000000600ef
:101978000000fa0031408000002020000080600054
:101988000000e00002003200f6ff07000be8a900a3
:101998000080fa00000006000000fa000080fa004b
:1019a800000006000000fa003140800000202000fe
:1019b800008060000000e00002003200f6ff07002f
:1019c8000c08a9000080fa00000006000200fa00d6
:1019d800000f7800046ea800188ea800046ea900f5
:1019e800188ea900048ea900188ea800188ea900c8
:1019f800188ea800188ea900048ea800188ea800ba
:101a0800188ea900188ea800188ea900188ea80094
:101a1800188ea900188ea800188ea900188ea80084
:101a2800188ea900188ea800188ea9000080200022
:101a38001e0060000000e00002003200048ea800d2
:101a480001003700048ea900188ea800188ea9007e
:101a5800004020001e0060000000e000020032008c
:101a6800048ea80001003700048ea900188ea80073
:101a7800188ea900002020001e0060000000e00071
:101a880002003200048ea80001003700048ea9006d
:101a9800188ea800188ea900001020001e006000f3
:101aa8000000e00002003200048ea80001003700a8
:101ab800048ea900188ea800188ea900000820001e
:101ac8001e0060000000e00002003200048ea80042
:101ad80001003700048ea900188ea800188ea900ee
:101ae800000420001e0060000000e0000200320038
:101af800048ea80001003700048ea900188ea800e3
:101b0800188ea900000220001e0060000000e000fe
:101b180002003200048ea80001003700048ea900dc
:101b2800188ea800188ea9009e00780070806000aa
:101b38000000e00002003200048ea8000100370017
:101b4800048ea900188ea800188ea9009e0078009f
:101b5800688060000000e00002003200048ea800e7
:101b680001003700048ea900188ea800188ea9005d
:101b78009e007800648060000000e00002003200ef
:101b8800048ea80001003700048ea900188ea80052
:101b9800188ea9009e007800628060000000e000b6
:101ba80002003200048ea80001003700048ea9004c
:101bb800188ea800188ea9001e0078006100600029
:101bc800004078000004e00002003200048ea80003
:101bd80001003700048ea900188ea800188ea900ed
:101be800188ea800188ea900188ea800188ea900b3
:101bf800188ea800188ea900188ea800188ea900a3
:101c0800046ea8000080fa00000006000000fa0038
:101c1800152ea900192ea800150ea900190ea80046
:101c2800b0082000010020003c030700192ea9007d
:101c3800b00820000100200038030700190ea90091
:101c48000080fa00000006000000fa00152ea90026
:101c5800192ea900150ea900190ea800b008200019
:101c6800010020002d030700152ea800150ea8005e
:101c78000080fa00000006000400fa0020479800df
:101c8800152ea900150ea900ae409000014f78004e
:101c980080c0b30010479800140037001e40780039
:101ca8000004e00002003d00192ea80001003700e2
:101cb800192ea9001e40780000404000004f78000f
:101cc800190ea8007011200001002000130307005e
:101cd800190ea900100d2000010020000f030700b5
:101ce8001e4090000040e900104798001e409000f8
:101cf8000004e000e9ff3a00152ea8000080fa0071
:101d0800000006000200fa00152ea800150ea90012
:101d180080c0b3001047980014003700500420001a
:101d280001002000fd020700190ea8001e407800df
:101d380000404000004f7800b17080000020200073
:101d4800008060000000e000020032001e04a000d5
:101d580002003700e0cfb3001e4f6000190ea90043
:101d68001e4090000040e900104798001e40900077
:101d78000004e000e9ff3a001e4078000080fa0005
:101d8800000006000200fa00152ea800150ea90092
:101d9800190ea8005004200001002000df020700ef
:101da800b07080004900de0061406000004f78009c
:101db800190ea9001e4078000080fa0000000600f5
:101dc8000000fa00152ea900192ea900150ea90069
:101dd8005004200001002000d0020700190ea800be
:101de800b008200001002000cc020700190ea9004d
:101df800152ea8000080fa00000006000000fa0076
:101e0800152ea900192ea800150ea900190ea80054
:101e18005004200001002000c0020700190ea9008c
:101e28005004200001002000bc020700152ea80065
:101e38000080fa00000006000000fa00003a800066
:101e48000080fa00000006000200fa00faff07000e
:101e5800000f78001e007800240007000004e0004e
:101e68000200320000002800710007001e00780000
:101e78002a0007000004e0000200320000002400ed
:101e88006b0007001e007800320007000004e00025
:101e98000200320000202000650007001e007800c4
:101ea8003a0007000004e0000200320000082000a9
:101eb8005f0007001e007800420007000004e000f1
:101ec8000200320000042000590007001e007800bc
:101ed8004a0007000004e000020032000001200070
:101ee800530007000080fa00000006000400fa0012
:101ef800100798000040eb00004f78001e0090008b
:101f08000000e00002003d0010c0b300004f780060
:101f18001e4078000080fa00000006000400fa0065
:101f2800100798000040eb00004f78009e009000da
:101f380000002400008060000000e0000200320081
:101f480010c0b300004f78001e4078000080fa00ef
:101f5800000006000400fa00100798000040eb009b
:101f6800004f78009e009000002020000080600054
:101f78000000e0000200320010c0b300004f7800fb
:101f88001e4078000080fa00000006000400fa00f5
:101f9800100798000040eb00004f78009e0090006a
:101fa80000082000008060000000e000020032000d
:101fb80010c0b300004f78001e4078000080fa007f
:101fc800000006000400fa00100798000040eb002b
:101fd800004f78009e009000000420000080600000
:101fe8000000e0000200320010c0b300004f78008b
:101ff8001e4078000080fa00000006000400fa0085
:10200800100798000040eb00004f78001e00900079
:10201800700060000000e0000200320010c0b30051
:10202800004f78001e4078000080fa00000006008b
:102038000200fa00000f78009e80ea00003a800053
:1020480000806000003a88000080fa000000060066
:102058000000fa004027ef000080fa0000000600a8
:102068000200fa00004f780010c0b30037000700e4
:1020780080092100110020002802070000c8b300d1
:102088009e40780080cf5000030032001e40780048
:102098002e00070001003700000000000080fa0051
:1020a800000006000600fa0020079800d7fe070087
:1020b800c0c7b300f0fe070032ff07002e009000f3
:1020c800e5fa07002047980010c0b30010479800b1
:1020d8001700370000ccb300004f78009e409000f6
:1020e8002e40900080cf500002003a0000c4b30098
:1020f800004f78001e407800dffe070021ff070030
:102108002e00900010407800004f78002e009000bc
:102118000000e800200798001e407800d6fe07005f
:1021280018ff07001e4090000040e8001047980084
:102138009e4090002e40900080cf5000e5ff340074
:10214800c1fe07000080fa00000006000200fa0045
:10215800004f7800adfe0700c0c7b300c6fe0700f9
:1021680008ff07000040eb00c3fe070005ff07005b
:102178001e407800c0fe070002ff0700b2fe0700fd
:102188000080fa00000006000200fa00004f780004
:10219800b07d2900a1022000e001070080c3b30040
:1021a800eaff0700d082200001002000db010700c1
:1021b80090c3b300e5ff0700d08220000100200093
:1021c800d601070040c1b300e0ff0700d08220001d
:1021d80001002000d10107009e4078006fc0600018
:1021e8000047b000d9ff0700d0822000010020007e
:1021f800ca0107001e80fb004400de000040780092
:102208004045b000d1ff0700d08220000100200027
:10221800c2010700c0c6b300ccff070090742f00ae
:10222800410d2000bd01070080c3b300c7ff0700b0
:10223800d082200001002000b8010700c0c0b30010
:10224800c2ff0700d082200001002000b301070070
:1022580010c0b300bdff07001013220021002000aa
:10226800ae0107000080fa00000006000000fa0036
:102278000a21ef00a0102000700888000621ef0056
:10228800b05123006008880080002800800888007a
:10229800f08480000000e00002003a00401d2100a8
:1022a800420007000108a9002108a800a070ef005b
:1022b8000080fa00000006000400fa00008fbe004b
:1022c8001e007800600888001e0078009e009000bc
:1022d8004008de0000007800700888000080fa00de
:1022e800000006000400fa000080eb008080eb008c
:1022f800008fbe00700880008000eb00c001dd0088
:1023080002002000600880008000eb00001f7100c0
:10231800019771001e0078009e0090000080fa006e
:10232800000006000400fa00008fbe001e007800be
:102338009e0090004008de000000780040088800f9
:102348001e007800300888000080fa0000000600af
:102358000800fa000080eb008080eb00008fbe00d0
:102368003108800021079800410880003107980053
:102378003e0090008000eb00c001dd00020020005c
:102388002e0090008000eb00001f71000197710083
:102398001e0078009e0090000080fa0000000600f1
:1023a8000000fa000080fa00000006000200fa00af
:1023b800000f78002108a9009e007800f1848800a9
:1023c8002108a8000080fa00000006000000fa00ba
:1023d800a070ef002108a80011e1a8000080fa0011
:1023e800000006000000fa0011e1a9002108a90078
:1023f8000080fa00000006000200fa00010a21002d
:1024080091407800014f78001e4078000004e000f9
:1024180001003200a070ef001e4078000080fa0032
:10242800000006000000fa00a1d0bf000080fb00f9
:102438000080fa00000006000000fa00a170ef001a
:102448000080fa00000006000000fa000081240065
:10245800005888001002200010588800062bef0052
:1024680000002100205888000a2bef00082bef00fd
:102478000c2bef000e2bef000088a90000012400b0
:1024880080588800122bef00162bef000000210067
:10249800a05888001a2bef00182bef001c2bef0018
:1024a8001e2bef0001c8a900202bef00222bef0004
:1024b800262bef0000002100205988002a2bef006e
:1024c800282bef002c2bef002e2bef000308a90080
:1024d800302bef00322bef00362bef0000002100ed
:1024e800a05988003a2bef00382bef003c2bef0067
:1024f8003e2bef000488a90001eba8000080fa0039
:10250800000006000000fa000080fa000000060043
:102518000000fa0000408000700060000000e00049
:1025280002003200f7ff07000088a9000080fa00c7
:10253800000006000000fa000080fa000000060013
:102548000000fa00014080000000240000806000c4
:102558000000e00002003200f6ff070001c8a900f1
:102568000080fa00000006000000fa000080fa006f
:10257800000006000000fa00114080000010200052
:10258800008060000000e00002003200f6ff070053
:102598000308a9000080fa00000006000000fa0005
:1025a8000080fa00000006000000fa0020408000c9
:1025b800700060000000e00002003200f7ff070032
:1025c8000488a9000080fa00000006000400fa0050
:1025d800004f7800110798008cfd070080c8b300f1
:1025e800a5fd0700e7fd07001e407800a2fd0700d3
:1025f800e4fd07001e0090004800de00004078005f
:102608009dfd0700dffd07001e00900000407800d8
:1026180099fd0700dbfd07008bfd07000080fa002d
:10262800000006000200fa00004f780077fd07005e
:1026380080c8b30090fd0700d2fd07001e40780057
:102648008dfd0700cffd07007ffd07000080fa0021
:10265800000006000200fa006cfd070090c8b300f5
:1026680085fd0700c7fd0700a6fd07001047980075
:10267800d3fd0700a3fd0700004f7800dffd07002a
:1026880071fd07001e0078000080fa0000000600b7
:102698000800fa00000f7800110798002207980038
:1026a800330798001e0090009e0040002e00900006
:1026b800808040003e0090008080400000002400a0
:1026c80000804000800078000040eb00bfff07005a
:1026d8000080fa00000006000200fa00ddff070093
:1026e800000f78001e0078000080fa000000060045
:1026f8000000fa0000202300203a88004827ef0055
:102708004e27ef00d0122000303a88006027ef00f3
:102718006227ef006427ef006627ef006a27ef00c3
:102728006c27ef006e27ef001200200080072000c2
:10273800a10920003374200080497800814978007d
:1027480082497800120020006004200071052000f2
:1027580023742000804978008149780082497800f4
:1027680000000000103a8000610060000000e000f6
:10277800fcff3a0000000000113a8000000220002f
:10278800008060000000e000fbff32000080fa00db
:10279800000006000000fa00042eef00182eef00db
:1027a800002eef00c0fe2f00a07088000c2eef0056
:1027b800202eef000a2eef001e2eef00062eef004f
:1027c8001a2eef000e2eef00222eef001ceea800ae
:1027d800803f2100070007000268a9002268a800be
:1027e8000080fa00000006000000fa000080fa00ed
:1027f800000006000200fa00000f78002268a90015
:102808009e007800218588002268a8000080fa00d0
:10281800000006000200fa00000f78001e00780091
:10282800f4ff07000080fa00000006000200fa002a
:10283800000f780021028000200f20000080600037
:102848001e007000200288000080fa0000000600c8
:102858000000fa00c3e8a800000000000000000023
:102868000080fa00000006000000fa00c9ff070017
:10287800430007009eff0700f5ff07000002200045
:0c288800eaff07000080fa0000000600d4
:020000040000fa
:10289400a21000000200000082000000ffff000000
:1028a4007e1000002000000080000000a410000042
:1028b4000200000080000000541000002a00000004
:1028c400800000009e100000040000008000000052
:1028d4000010000054000000800000000000000010
:020000040000fa
:1028e4000000fa0083ff07000080fa0000000600e1
:1028f4000000fa00003a80000080fa0000000600a0
:102904000000fa0051fd07000080fa0000000600f4
:102914000000fa00cffd07000080fa000000060066
:020000040000fa
:10292400f03fb1000180b10006003500ee0309005c
:1029340000000000403fb1000180b100fbff3d00fa
:102944001000b000203fb0000200350000800900f4
:08295400000000000000060075
:020000040000fa
:10295c00000f78009e00780011858800ffff37007b
:10296c000000fa00e00721008007780060092100d0
:10297c00000188000080fa00000006000000fa0048
:10298c004142800000002700010070004042880096
:08299c000080fa0000000600b3
:020000040000fa
:04af0000ffff00004f
:020000040000fa
:04af2000ffff00002f
:020000040000fa
:04af3000f8ff000026
:020000040000fa
:04af38007bff00009b
:020000040000fa
:04af400098ff000076
:020000040000fa
:04af4800ffff000007
:020000040000fa
:04af5000ffff0000ff
:020000040000fa
:04af580000000000f5
:020000040000fa
:04af600000000000ed
:020000040000fa
:04af680000000000e5
:020000040000fa
:04af700000000000dd
:020000040000fa
:04af7800feff0000d8
:020000040000fa
:04af8000f7ff0000d7
:020000040000fa
:04af8800ffff0000c7
:00000001FF
